:100000000C9462000C945E050C948B050C948A0091
:100010000C948A000C948A000C948A000C94460B71
:100020000C948A000C948A000C948A000C948A0028
:100030000C948A000C948A000C948A000C948A0018
:100040000C94B8050C948A000C9475080C948A00E2
:100050000C948A000C948A000C948A000C948A00F8
:100060000C948A000C948A000000000024002700F1
:100070002A0000000000250028002B0000000000DE
:1000800023002600290004040404040404040202DA
:100090000202020203030303030301020408102007
:1000A0004080010204081020010204081020000012
:1000B0000007000201000003040600000000000029
:1000C00000008C0911241FBECFEFD8E0DEBFCDBFEA
:1000D00011E0A0E0B1E0E8EBF8E102C005900D927C
:1000E000A639B107D9F712E0A6E9B1E001C01D9227
:1000F000A536B107E1F710E0C4ECD0E004C02297C8
:10010000FE010E94300CC23CD107C9F70E9457057E
:100110000C945A0C0C94000085E061E00E94920659
:1001200086E061E00E94920687E061E00E9492060C
:1001300088E061E00E9492068CE060E00E949206F6
:1001400089E060E00E9492068BE492E040E051EE8C
:1001500060E070E00E949D0808954091990150E090
:10016000ECE9F1E080E090E09A01082E02C03595BC
:1001700027950A94E2F7217030702193319301960C
:100180008430910589F780919A0190E09C0121705B
:1001900030703093A5012093A4019C0135952795DB
:1001A000217030703093A7012093A6019C013595F2
:1001B000279535952795217030703093A9012093AC
:1001C000A80133E0959587953A95E1F78170907095
:1001D0009093AB018093AA0180919B0190E01092D3
:1001E000AD011092AC019C01217030703093AF01D1
:1001F0002093AE0195958795817090709093B10191
:100200008093B00108950F931F93CF93DF9362E122
:1002100070E00E94CA0B8B01C0E0D0E011C088E002
:1002200061E00E94B60689E090E00E944D0688E0F9
:1002300060E00E94B60689E090E00E944D0621969B
:100240000C171D0764F7DF91CF911F910F9108954F
:10025000CF93DF9380EC92E10E94030188E061E09C
:100260000E94B6068CE291E00E944D06CCE9D1E0F6
:1002700089919991009719F488E592E002C080EB8A
:1002800094E00E94030188E061E00E94B6068CE2DF
:1002900091E00E944D0681E0C43BD80749F780E613
:1002A00099E00E94030165E070E080E090E00E9428
:1002B000260688E060E00E94B606DF91CF9108959F
:1002C000FC01389644E050E081E090E020E030E02E
:1002D000729162916130710511F4280F391F4150FC
:1002E000504019F0880F991FF3CFC9010895CF929C
:1002F000DF92EF92FF920F931F93DF93CF93CDB7CF
:10030000DEB768970FB6F894DEBF0FBECDBF88E0AA
:1003100060E022E330E040E050E00E9451078B01B2
:1003200022E1603C7207DCF4161617060CF093C14C
:1003300080918201882331F08BE492E060E071E0EB
:100340000E94FE0980918201882309F484C18BE414
:1003500092E0B8014AE050E00E94120B7CC188E0B4
:1003600060E020E432E44FE050E00E9451077A83DD
:10037000698388E060E020E432E44FE050E00E94CE
:1003800051077C836B8388E060E020E432E44FE037
:1003900050E00E9451077E836D8388E060E020E496
:1003A00032E44FE050E00E94510778876F8388E085
:1003B00060E020E432E44FE050E00E9451077A8789
:1003C000698788E060E020E432E44FE050E00E947A
:1003D00051077C876B8788E060E020E432E44FE0DF
:1003E00050E00E9451077E876D8788E060E020E43E
:1003F00032E44FE050E00E945107788B6F8788E02D
:1004000060E020E432E44FE050E00E9451077A8B34
:10041000698B88E060E020E432E44FE050E00E9425
:1004200051077C8B6B8B88E060E020E432E44FE086
:1004300050E00E9451077E8B6D8B88E060E020E4E5
:1004400032E44FE050E00E945107788F6F8B88E0D4
:1004500060E020E432E44FE050E00E9451079B014D
:10046000AC018091820199E0203639079CF4882301
:1004700039F08BE492E0B9014AE050E00E94D60ADC
:1004800080918201882309F4E6C08BE492E065E064
:1004900071E0DFC0882331F08BE492E064E171E029
:1004A0000E94070B8E010F5F1F4F89E0E82EF12C91
:1004B000EC0EFD1EB1E0CB2ED12C80918201882361
:1004C00049F0F801608171818BE492E04AE050E0EC
:1004D0000E94120BF80180819181F4E0813B9F071B
:1004E00024F0F801D182C08212C0F2E089359F0762
:1004F00024F0F801118210820AC0809182018823C1
:1005000009F4A9C08BE492E061E271E0A2C00E5F41
:100510001F4F0E151F0589F6CE0101960E9460013E
:10052000BC019093B5018093B4018091820188232E
:1005300031F08BE492E04AE050E00E94120B80918F
:100540008201882331F08BE492E060E371E00E9445
:10055000070B8E01075F1F4FA1E1EA2EF12CEC0E75
:10056000FD1EF1E0CF2ED12C80918201882349F02D
:10057000F801608171818BE492E04AE050E00E94D2
:10058000120BF80180819181F4E0813B9F0724F0F8
:10059000F801D182C08208C0F2E089359F070CF4CF
:1005A00050C0F801118210820E5F1F4F0E151F05FB
:1005B000D9F6CE0109960E946001BC019093B70163
:1005C0008093B60180918201882331F08BE492E020
:1005D0004AE050E00E94120B80918201882331F0A2
:1005E0008BE492E06AE471E00E94070B8E010F5EDB
:1005F0001F4FE9E1EE2EF12CEC0EFD1E71E0C72E2F
:10060000D12C80918201882349F0F80160817181A9
:100610008BE492E04AE050E00E94120BF8018081E6
:100620009181F4E0813B9F0724F0F801D182C082E0
:1006300019C0F2E089359F0724F0F8011182108279
:1006400011C080918201882331F08BE492E06BE34A
:1006500071E00E94070B8FEF9FEF9093B50180939D
:10066000B40118C00E5F1F4F0E151F0551F6CE01C5
:1006700041960E946001BC019093B9018093B8013A
:1006800080918201882331F08BE492E04AE050E0CF
:100690000E94120B68960FB6F894DEBF0FBECDBF56
:1006A000CF91DF911F910F91FF90EF90DF90CF904E
:1006B00008950F931F93CF93DF93182F092F61E0B5
:1006C00070E080E090E00E942606C801092F182FF4
:1006D000C0E0D0E013C061E070E080E090E00E94F4
:1006E00026068BE492E00E940A088E3369F0F80136
:1006F00081938F012196C630D10531F08BE492E0D1
:100700000E94DA07009739F7DF91CF911F910F917F
:100710000895DF92EF92FF920F931F93DF93CF9391
:1007200000D0CDB7DEB78C01FC018081813651F459
:1007300060919601709197018BE492E04AE050E05D
:100740000E94120BF80180818136F9F4818189368B
:10075000E1F48BE492E064E571E00E94FE098BE431
:1007600092E06091990140E050E00E94F70A8BE42A
:1007700092E06BE571E00E94FE098BE492E06091EB
:100780009A0140E050E00E94F70AF8018081833727
:1007900031F483E090E09093970180939601F80103
:1007A00080818936C9F48181D2801A821982898335
:1007B0007E010894E11CF11CC7010E94340C809357
:1007C0009901D982C7010E94340C80939A010E943A
:1007D000AD0081E080939801F8018081803731F489
:1007E00082E090E090939701809396010F900F9094
:1007F000CF91DF911F910F91FF90EF90DF900895BF
:100800000F931F93DF93CF9300D000D000D0CDB7CC
:10081000DEB78BE492E00E94DA07009779F08BE470
:1008200092E00E940A088C3349F48E010F5F1F4F3B
:10083000C8010E945903C8010E94890326960FB679
:10084000F894DEBF0FBECDBFCF91DF911F910F9106
:1008500008950F931F93CF93DF93CBE4D2E0CE01A3
:1008600067E671E00E94FE096091B4017091B501E4
:10087000CE014AE050E00E94D60A0BE611E0CE011C
:10088000B8010E94FE09CE016091990140E050E05C
:100890000E94980ACE01B8010E94FE096091B80139
:1008A0007091B901CE014AE050E00E94D60ACE0113
:1008B00065E671E00E94070BDF91CF911F910F91C8
:1008C000089585E061E00E94B60686E061E00E943E
:1008D000B60687E061E00E94B60662E370E080E061
:1008E00090E00E94260685E060E00E94B60686E061
:1008F00060E00E94B60687E060E00E94B60662E310
:1009000070E080E090E00E942606089585E061E0B6
:100910000E94B60686E061E00E94B60687E061E0CC
:100920000E94B60666E970E080E090E00E9426062C
:1009300085E060E00E94B60686E060E00E94B606B0
:1009400087E060E00E94B60666E970E080E090E033
:100950000E94260608950E940004809196019091BD
:1009600097018130910531F1823091051CF4009797
:1009700049F090C08230910501F18330910509F072
:1009800089C01EC085E061E00E94B60686E061E095
:100990000E94B60687E061E00E94B6068091980149
:1009A000882309F483C081E090E0909397018093BD
:1009B000960108950E94860408950E946104089596
:1009C00089E00E9408078130910511F40E942801F6
:1009D0000E9477018091B4019091B5012FEF8F3F74
:1009E000920709F44AC080918201882331F08BE498
:1009F00092E06DE671E00E94FE09809182018823F9
:100A000051F06091B4017091B5018BE492E04AE03D
:100A100050E00E94D60A80918201882331F08BE455
:100A200092E063E771E00E94FE09809182018823D1
:100A300051F06091B6017091B7018BE492E04AE009
:100A400050E00E94120B80918201882331F08BE4E8
:100A500092E06BE771E00E94FE0980918201882399
:100A600051F06091B8017091B9018BE492E04AE0D5
:100A700050E00E94120B0E94290485E060E00E9471
:100A8000B60686E061E00E94B60687E060E00E945C
:100A9000B606089585E060E00E94B60686E060E054
:100AA0000E94B60687E061E00E94B60608950E94A3
:100AB00057060E948C000E94AB04FDCF1F920F923C
:100AC0000FB60F9211242F933F934F935F936F9321
:100AD0007F938F939F93AF93BF93EF93FF938091F7
:100AE000BA019091BB01009729F0E091BA01F09111
:100AF000BB010995FF91EF91BF91AF919F918F91AC
:100B00007F916F915F914F913F912F910F900FBE09
:100B10000F901F9018951F920F920FB60F921124ED
:100B20002F933F934F935F936F937F938F939F93F5
:100B3000AF93BF93EF93FF938091BC019091BD0160
:100B4000009729F0E091BC01F091BD010995FF915A
:100B5000EF91BF91AF919F918F917F916F915F9135
:100B60004F913F912F910F900FBE0F901F901895AE
:100B70001F920F920FB60F9211242F933F938F93D2
:100B80009F93AF93BF938091C2019091C301A091B5
:100B9000C401B091C5013091C6010196A11DB11DDE
:100BA000232F2D5F2D3720F02D570196A11DB11D4C
:100BB0002093C6018093C2019093C301A093C40106
:100BC000B093C5018091BE019091BF01A091C00179
:100BD000B091C1010196A11DB11D8093BE019093FA
:100BE000BF01A093C001B093C101BF91AF919F918C
:100BF0008F913F912F910F900FBE0F901F901895DE
:100C00009FB7F8942091BE013091BF014091C0017F
:100C10005091C10186B5A89B06C08F3F21F02F5F80
:100C20003F4F4F4F5F4F9FBF542F432F322F2227ED
:100C3000280F311D411D511D82E0220F331F441F1B
:100C4000551F8A95D1F7B901CA010895EF92FF9215
:100C50000F931F93CF93DF937B018C010E940006BB
:100C6000EB010FC00E9400066C1B7D0B83E0683E09
:100C7000780738F00894E108F10801091109C85112
:100C8000DC4FE114F1040105110561F7DF91CF910B
:100C90001F910F91FF90EF900895019739F0880F01
:100CA000991F880F991F02970197F1F7089578947B
:100CB00084B5826084BD84B5816084BD85B5826061
:100CC00085BD85B5816085BDEEE6F0E080818160FF
:100CD0008083E1E8F0E010828081826080838081FF
:100CE00081608083E0E8F0E0808181608083E1EBD7
:100CF000F0E0808184608083E0EBF0E080818160BF
:100D00008083EAE7F0E08081846080838081826074
:100D1000808380818160808380818068808310925D
:100D2000C100089590E0FC01E656FF4F2491FC01BC
:100D3000EA57FF4FE491EE23C1F0F0E0EE0FFF1F02
:100D4000E859FF4F85919491DC01662341F49FB7E8
:100D5000F8948C91209582238C939FBF08959FB720
:100D6000F8948C91822B8C939FBF089590E0FC01A6
:100D7000E255FF4F2491FC01E656FF4F44918A57FC
:100D80009F4FFC018491882309F441C0222331F153
:100D9000233021F4909180009F7705C0243031F4F6
:100DA000909180009F7D9093800018C0213019F4AD
:100DB00094B59F7704C0223021F494B59F7D94BDF3
:100DC0000DC0263021F49091B0009F7705C02730E8
:100DD00029F49091B0009F7D9093B000E82FF0E04F
:100DE000EE0FFF1FEE58FF4F25913491D901662376
:100DF00041F49FB7F8948C91409584238C939FBFC6
:100E000008959FB7F8948C91842B8C939FBF08957D
:100E100090E0FC01E255FF4F2491FC01E656FF4FA4
:100E200044918A579F4FFC0184918823B1F122237A
:100E300031F1233021F4909180009F7705C0243058
:100E400031F4909180009F7D9093800018C02130F4
:100E500019F494B59F7704C0223021F494B59F7D96
:100E600094BD0DC0263021F49091B0009F7705C04D
:100E7000273029F49091B0009F7D9093B000E82F27
:100E8000F0E0EE0FFF1FE458FF4F25913491D90198
:100E90008C91842321E030E011F420E030E0C9019E
:100EA0000895CF92DF92EF92FF920F931F93CF930B
:100EB000DF9390E0FC01E656FF4FE4908A579F4F86
:100EC000FC018491662311F4FF2401C0FE2C8901EA
:100ED0009A013F7040E050E060E070E090E0FC017B
:100EE000EE0FFF1FE458FF4FA591B4910AC04017C1
:100EF00051076207730709F44EC04F5F5F4F6F4F92
:100F00007F4FCA2EE6016E01DB2EE601E881EE215D
:100F1000EF1569F30BC0401751076207730709F417
:100F20003AC04F5F5F4F6F4F7F4F07C0880F991FC9
:100F300084589F4FFC01C591D4916E01AC2FBD2DFB
:100F4000EC91EE21EF1539F720E030E040E050E081
:100F5000FC016591749104C02F5F3F4F4F4F5F4F6D
:100F6000FB0180818E218F15B9F3CA01B9012AE0F6
:100F700030E040E050E00E94AB0B9B01AC01205FF1
:100F80003F4F4F4F5F4F84E05695479537952795D4
:100F90008A95D1F704C020E030E040E050E0B9018C
:100FA000CA01DF91CF911F910F91FF90EF90DF90D9
:100FB000CF900895FC0122813381F901E058FF4F61
:100FC0008081918180589F4F2E573F4FF90120819A
:100FD0003181821B930B60E870E00E94CA0B089578
:100FE000FC0182819381FC01EE57FF4F208131810A
:100FF000FC01E058FF4F408151814217530731F007
:10100000820F931FFC01208130E002C02FEF3FEFE1
:10101000C9010895DC0112962D913C911397F901B5
:10102000EE57FF4F80819181D901A058BF4F4D915C
:101030005C9111974817590769F0280F391FD9019A
:101040002C91019660E870E00E94CA0B9183808326
:1010500030E002C02FEF3FEFC9010895DC01129686
:101060008D919C911397FC01E058FF4F8E579F4F35
:10107000DC018D919C911197918380830895FC01EF
:10108000A085B18521898C9190E0022E02C09595B2
:1010900087950A94E2F780FFF6CF0484F585E02D6A
:1010A000608308951F93CF93DF93182F9B01EB016B
:1010B000C058DF4FE881F981CF01019660E870E008
:1010C0000E94CA0BAC01D901AE57BF4F8D919C91C4
:1010D00011974817590729F0E20FF31F108359831E
:1010E0004883DF91CF911F9108951F920F920FB601
:1010F0000F9211242F933F934F935F936F937F939E
:101100008F939F93AF93BF93EF93FF938091C6000C
:1011100067EC71E00E945208FF91EF91BF91AF918F
:101120009F918F917F916F915F914F913F912F91FF
:101130000F900FBE0F901F9018958F929F92AF92B5
:10114000BF92DF92EF92FF920F931F93CF93DF93A3
:10115000EC017A018B01413482E458078FE0680783
:1011600080E078070CF07DC060E874E88EE190E0E4
:10117000A80197010E94FF0B215030404040504091
:10118000CA01B90122E030E040E050E00E94FF0BCC
:1011900049015A01209530954095509594E0220FD1
:1011A000331F441F551F9A95D1F760E074E284EF16
:1011B00090E00E94FF0BCA01B9012FEF30E040E040
:1011C00050E00E94AB0BA80197010E94FF0BC901E0
:1011D00081509F4F181619061CF4D22EDA9403C0C2
:1011E000DD24D394D21A60E079E08DE390E0A80189
:1011F00097010E94FF0B2150304040405040CA01EF
:10120000B90122E030E040E050E00E94FF0B209561
:1012100030954095509583E0220F331F441F551F92
:101220008A95D1F760E074E284EF90E00E94FF0BB2
:10123000CA01B9012FEF30E040E050E00E94AB0B53
:10124000A80197010E94FF0BC90181509F4F1816FA
:1012500019061CF4822F815002C081E0821B8D157B
:1012600000F5E885F98581E090E00A8802C0880FE2
:10127000991F0A94E2F7808360E079E08DE390E0C3
:10128000A80197010E94FF0B215030404040504080
:10129000CA01B90122E030E040E050E00E94FF0BBB
:1012A00004C0E885F98510829401EC81FD813083CA
:1012B000EE81FF812083EA85FB85408181E090E01B
:1012C0009C010E8402C0220F331F0A94E2F7422BC6
:1012D0004083EA85FB8540819C010F8402C0220F78
:1012E000331F0A94E2F7422B4083EA85FB85208175
:1012F000088802C0880F991F0A94E2F7282B2083E0
:10130000DF91CF911F910F91FF90EF90DF90BF90F1
:10131000AF909F908F90089587E891E090934C0252
:1013200080934B0287EC91E090934E0280934D02A4
:1013300085EC90E09093500280934F0284EC90E013
:10134000909352028093510280EC90E0909354026B
:101350008093530281EC90E0909356028093550263
:1013600086EC90E0909358028093570284E080933B
:10137000590283E080935A0287E080935B0285E004
:1013800080935C0281E080935D0208950F931F9328
:10139000CF93DF93EC01062F172F07C0E881F98167
:1013A0000190F081E02DCE010995F80161918F0146
:1013B0006623A1F7DF91CF911F910F910895EF92CE
:1013C000FF920F931F93CF93DF937C01EB018A0170
:1013D0000BC06991D701ED91FC910190F081E02D56
:1013E000C7010995015010400115110591F7DF91D2
:1013F000CF911F910F91FF90EF900895DC01ED9137
:10140000FC910280F381E02D099508956F927F92FF
:101410008F929F92AF92BF92CF92DF92EF92FF9204
:101420000F931F93DF93CF93CDB7DEB7A0970FB67F
:10143000F894DEBF0FBECDBF5C01CB01BA016115D0
:1014400071058105910551F4C50140E350E060E06C
:1014500070E020E030E00E94A00A46C06E010894CF
:10146000C11CD11CEE24FF248701622E772488241E
:101470009924A40193010E94DD0BF60161936F0191
:101480000894E11CF11C011D111DB901CA0161156F
:1014900071058105910569F7D801C7010197A10977
:1014A000B1096E010894C11CD11CC80ED91E17C009
:1014B000F60140814A3010F4405D01C0495C50E0C3
:1014C00060E070E0C50120E030E00E94A00A0894CE
:1014D000E108F108010911090894C108D108E114D3
:1014E000F1040105110521F7A0960FB6F894DEBFAF
:1014F0000FBECDBFCF91DF911F910F91FF90EF9065
:10150000DF90CF90BF90AF909F908F907F906F9023
:1015100008952115310549F4DC01ED91FC9101900C
:10152000F081E02D642F099508950E94060A089520
:101530009A01462F50E060E070E00E94890A089509
:10154000EF92FF920F931F93CF93DF93EC017A01F9
:101550008B012115310541F4E881F9810190F08179
:10156000E02D642F09951BC02A303105B1F477FFB7
:1015700010C04DE250E060E070E020E030E00E94FA
:10158000A00A10950095F094E094E11CF11C011D57
:10159000111DCE01B801A7012AE00E94060ADF91C1
:1015A000CF911F910F91FF90EF9008959A01FB0149
:1015B000AF01662757FD6095762F0E94A00A089517
:1015C000CF93DF93EC014DE050E060E070E020E06D
:1015D00030E00E94A00ACE014AE050E060E070E0F6
:1015E00020E030E00E94A00ADF91CF910895CF93D0
:1015F000DF93EC019A01462F50E060E070E00E941A
:10160000890ACE010E94E00ADF91CF910895CF931D
:10161000DF93EC010E94FE09CE010E94E00ADF91F7
:10162000CF910895CF93DF93EC019A01CB01AC01E8
:10163000662757FD6095762FCE010E94A00ACE0145
:101640000E94E00ADF91CF910895813041F081300E
:1016500018F08230D1F409C010926E000895809184
:101660006F008D7F80936F000895809170008D7F53
:101670008093700081E08093B0008091B100887FFA
:1016800084608093B1001092B30008951F920F926E
:101690000FB60F9211242F933F934F935F936F9345
:1016A0007F938F939F93AF93BF93EF93FF9380911B
:1016B0005E0290915F02A0916002B091610200977A
:1016C000A105B10551F1E0916202F09163028081C0
:1016D000909164028927808380915E0290915F02DD
:1016E000A0916002B0916102181619061A061B0635
:1016F0000CF580915E0290915F02A0916002B09122
:1017000061020197A109B10980935E0290935F0283
:10171000A0936002B09361020DC082E00E94250B8D
:10172000E0916202F0916302908180916402809561
:1017300089238083FF91EF91BF91AF919F918F910A
:101740007F916F915F914F913F912F910F900FBEBD
:101750000F901F901895629FD001739FF001829F98
:10176000E00DF11D649FE00DF11D929FF00D839F30
:10177000F00D749FF00D659FF00D9927729FB00DCD
:10178000E11DF91F639FB00DE11DF91FBD01CF01E0
:101790001124089597FB092E07260AD077FD04D05F
:1017A00049D006D000201AF4709561957F4F0895B6
:1017B000F6F7909581959F4F0895A1E21A2EAA1BE6
:1017C000BB1BFD010DC0AA1FBB1FEE1FFF1FA217F1
:1017D000B307E407F50720F0A21BB30BE40BF50BEE
:1017E000661F771F881F991F1A9469F76095709577
:1017F000809590959B01AC01BD01CF01089597FBA9
:10180000092E05260ED057FD04D0D7DF0AD0001CC4
:1018100038F450954095309521953F4F4F4F5F4F8D
:101820000895F6F790958095709561957F4F8F4F4D
:101830009F4F0895AA1BBB1B51E107C0AA1FBB1FE6
:10184000A617B70710F0A61BB70B881F991F5A954C
:10185000A9F780959095BC01CD010895EE0FFF1F6B
:101860000590F491E02D0994FC0188279927E894CC
:1018700021912032E9F3293010F02E30C8F32B32B9
:1018800041F02D3239F4689404C00E94520C820F4A
:10189000911D219120532A30C0F31EF4909581951B
:1018A0009F4F08957AE0979F902D879F802D910DEF
:0818B00011240895F894FFCF04
:1018B8002121212000203A2062616420656E642085
:1018C800626974002D2D2D706C617965722D2D2D36
:1018D80000756E6B6E6F776E20706C617965720043
:1018E8002D2D2D7465616D2D2D2D00756E6B6E6F10
:1018F800776E20616374696F6E002D2D2D6D6F6496
:101908002D2D2D00706E756D3A2000705465616D37
:101918003A20003C003E003C6B2000200057686FD6
:101928003A2000205465616D3A2000204D6F643ADA
:10193800200001000000003F08C609DF09DA070A95
:06194800082E08F0070064
:00000001FF
